:100000007FC10000ADC10000ABC10000A9C100006C
:10001000A7C10000A5C10000A3C10000A1C100004C
:100020009FC100009DC100009BC1000099C100005C
:1000300097C1000095C1000093C1000091C100006C
:100040008FC100008DC100008BC1000089C100007C
:1000500087C1000085C1000083C10000B6C6000052
:100060007FC100007CC6000051C6000079C10000BD
:1000700077C1000075C1000073C1000071C10000AC
:100080006FC100006DC100006BC1000069C10000BC
:1000900067C1000065C1000063C1000061C10000CC
:1000A0005FC100005DC100005BC1000059C10000DC
:1000B00057C1000055C1000053C1000051C10000EC
:1000C0004FC100004DC100004BC1000049C10000FC
:1000D00047C1000045C1000043C1000041C100000C
:1000E0003FC1000000407A10F35A00A0724E180978
:1000F0000010A5D4E80000E87648170000E40B548F
:10010000020000CA9A3B000000E1F505000080965D
:100110009800000040420F000000A086010000008F
:10012000102700000000E803000000006400000049
:1001300000000A00000000000100000000002C7612
:10014000D888DC674F0823DFC1DFAE59E1B1B7962D
:10015000E5E3E453C63AE651997696E8E6C284268A
:10016000EB898C9B62ED407C6FFCEFBC9C9F40F266
:10017000BAA56FA5F490055A2AF75C936B6CF967E2
:100180006DC11BFCE0E40D47FEF520E6B500D0EDA7
:10019000902E0300943577050080841E080000200F
:1001A0004E0A000000C80C333333330F986E1283AD
:1001B0001141EF8D2114893BE65516CFFEE6DB1881
:1001C000D1844B381BF77C1D901DA4BBE424203246
:1001D00084725E228100C9F124ECA1E53D27000074
:1001E0002100240027002A002D00300033000101E7
:1001F0000000040107010A01000022002500280078
:100200002B002E003100340002010000050108011E
:100210000B0100000A0B02090C0D0E080703040174
:1002200000000000000000000000000000000000CE
:10023000000000000000000000000000000012119B
:10024000100000000000000000000000000000009E
:100250000000000000000000000020002300260035
:1002600029002C002F0032000001000003010601CC
:10027000090105050505070508080808020202022C
:100280000A0A080804040404010101010101010132
:100290000303030303030303040707070C0C0C0CFD
:1002A0000C0C0C0C020202020606060606060606E6
:1002B0000B0B0B0B0B0B0B0B010210202008081073
:1002C00020401020408002010201080402010102C6
:1002D000040810204080804020100804020180049F
:1002E00002018040201008040201080402010102FA
:1002F00004081020408001020408102040802F07CD
:1003000011241FBECFEFD1E2DEBFCDBF00E00CBF96
:1003100023E0A6E5B2E001C01D92A331B207E1F7E8
:1003200012E0A0E0B2E0EEEDFDE100E00BBF02C0A4
:1003300007900D92A635B107D9F711E0C0E8D1E0DA
:1003400000E006C021970109802FFE010E94D40C15
:10035000CF37D10780E00807A9F7CED50C94ED0E72
:100360004FCECF92DF92EF92FF92CF93DF93C82FC1
:10037000809102038C3009F45EC038F48B30F1F0C8
:1003800060E070E080EC9FE74FC085518230C0F79D
:10039000D091FE026D2F70E0762F662766277F775B
:1003A0008091FF02682B90E080E00E947E0B2DEC94
:1003B0003CEC4CEC5DE30E94BB0B59C06091FE022B
:1003C00070E090E080E00E947E0B6B017C01D09198
:1003D000FF02D7FF0AC0AC019B0160E070E080E83B
:1003E0009FEB0E946F0C6B017C01DF706D2F70E042
:1003F00090E080E00E94800B2DEC3CEC4CEC5DE347
:100400000E94BB0BA70196010E94700CCC2361F0E7
:1004100026E636E646EE5FE30E94BB0B20E030E0C6
:1004200040E052E40E94700CDF91CF91FF90EF907A
:10043000DF90CF900895D091FE026D2F70E090E094
:1004400080E00E947E0B6B017C016091FF026F7067
:1004500070E090E080E00E94800B2DEC3CEC4CECD6
:100460005DE30E94BB0BA70196010E94700CD7FFB1
:10047000CDCF9058CBCFCF92DF92EF92FF92CF9318
:10048000DF93B0910303A0E08111AB2F80910403AF
:1004900090E0880F991FAC01485A5D4FC090090346
:1004A000D0900A03E0900B03F0900C0330E020E0C2
:1004B000FA01C591D491E881B90190E080E0EB2385
:1004C000EA130AC02F5F3F4F6C157D058E059F050F
:1004D00078F36FEF7FEFCB01DF91CF91FF90EF903B
:1004E000DF90CF900895AF92BF92CF92DF92EF92BC
:1004F000FF920F931F93CF93DF936C017B018B01CE
:10050000040F151FEB015E01AE18BF08C017D1071D
:1005100059F06991D601ED91FC910190F081E02DA7
:10052000C6011995892B79F7C501DF91CF911F91EC
:100530000F91FF90EF90DF90CF90BF90AF90089514
:10054000FC01538D448D252F30E0842F90E0821BD9
:10055000930B541710F0CF96089501970895FC015E
:10056000918D828D981761F0A28DAE0FBF2FB11DB6
:100570005D968C91928D9F5F9F73928F90E008950E
:100580008FEF9FEF0895FC01918D828D981731F0C8
:10059000828DE80FF11D858D90E008958FEF9FEF1C
:1005A0000895FC01918D228D892F90E0805C9F4FF2
:1005B000821B91098F73992708958FE592E0F1DFEF
:1005C00021E0892B09F420E0822F0895FC01A48DFD
:1005D000A80FB92FB11DA35ABF4F2C91848D90E065
:1005E00001968F739927848FA689B7892C93A08948
:1005F000B1898C91837080648C93938D848D9813D2
:1006000006C00288F389E02D80818F7D8083089564
:10061000EF92FF920F931F93CF93DF93EC0181E052
:10062000888F9B8D8C8D98131AC0E889F9898081F9
:1006300085FF15C09FB7F894EE89FF896083E8892C
:10064000F98980818370806480839FBF81E090E01E
:10065000DF91CF911F910F91FF90EF900895F62EAB
:100660000B8D10E00F5F1F4F0F731127E02E8C8D45
:100670008E110BC00FB607FCFACFE889F98980818B
:1006800085FFF5CFCE01A2DFF2CFEB8DEC0FFD2F72
:10069000F11DE35AFF4FF0829FB7F8940B8FEA8960
:1006A000FB8980818062D0CFCF93DF93EC01888D6E
:1006B0008823B1F0AA89BB89E889F9898C9185FDE5
:1006C00003C0808186FD0CC00FB607FCF7CF8C916C
:1006D00085FFF2CF808185FFEDCFCE0177DFEACFB6
:1006E000DF91CF91089580E090E0892B21F065DFC4
:1006F00081110E94000080E090E0892B49F080E0A9
:1007000090E0892B29F00E94000081110E940000D6
:1007100080E090E0892B49F080E090E0892B29F07F
:100720000E94000081110E94000080E090E0892B6F
:1007300049F080E090E0892B29F00E9400008111AF
:100740000C9400000895CF93DF9390E0FC01E854EF
:10075000FD4F24918E589D4FFC0184918823D1F048
:1007600090E0880F991FFC01E252FE4FA591B491D1
:10077000FC01E850FE4FC591D491623071F49FB7EF
:10078000F8943C91822F809583238C93E8812E2BC3
:1007900028839FBFDF91CF9108958FB7F894EC9194
:1007A0002E2B2C938FBFF6CF3FB7F8948091570232
:1007B00090915802A0915902B0915A0226B5A89B77
:1007C00005C02F3F19F00196A11DB11D3FBFBA2FE3
:1007D000A92F982F8827BC01CD01620F711D811DA3
:1007E000911D42E0660F771F881F991F4A95D1F728
:1007F00008958F929F92AF92BF92CF92DF92EF9225
:10080000FF924B015C01D0DF6B017C01CDDF6C19E5
:100810007D098E099F09683E734081059105B0F3FB
:1008200021E0821A9108A108B10888EEC80E83E081
:10083000D81EE11CF11C81149104A104B10431F70C
:10084000FF90EF90DF90CF90BF90AF909F908F90F0
:1008500008958F929F92AF92BF92EF92FF920F9363
:100860001F93CF93DF93CDB7DEB7C054D1400FB6FF
:10087000F894DEBF0FBECDBF2FB7F89480915B0216
:1008800090915C02A0915D02B0915E022FBF4091F9
:1008900005035091060360910703709108038C01D2
:1008A0009D01041B150B260B370BB901A801403D18
:1008B000574061057105A0F480910D03C05CDE4FC7
:1008C0000FB6F894DEBF0FBECDBFDF91CF911F9161
:1008D0000F91FF90EF90BF90AF909F908F900895F1
:1008E0008093050390930603A0930703B093080336
:1008F000109200031092FF021092FE021092FD026D
:100900001092FC0262E0809101031DDF61E070E063
:1009100080E090E06EDF61E08091010314DF2091C0
:10092000010330E0F901EE5EFD4F8491F901E854D6
:10093000FD4F94912E583D4FF9012491222309F443
:1009400033C0882311F181508231F8F4E82FF0E0B0
:100950008827E255FB4F8F4F0C94D40C05050905F1
:10096000C004FD040105C5040C05120516051C058F
:10097000200524052A052E05C504320538053C0549
:10098000809180008F7780938000E22FF0E0EE0F5F
:10099000FF1FE850FE4FA591B4918FB7F894EC91EA
:1009A00090959E239C938FBF809102038551823046
:1009B00008F066C08BE291E10197F1F762E0809167
:1009C0000103C1DE80910E0390E08230910538F082
:1009D000880F991F880F991F05970197F1F7F894D1
:1009E00080E049DD6F3F7F4F8F4F9F4F09F04EC032
:1009F00010920D03789480E061CF809180008F7D0C
:100A0000C2CF80918000877FBECF84B58F7784BDB1
:100A1000BCCF84B58F7DFBCF8091B0008F77809362
:100A2000B000B3CF8091B0008F7DF9CF809190005E
:100A30008F7780939000A9CF809190008F7DF9CF20
:100A400080919000877FF5CF8091A0008F77809371
:100A5000A0009BCF8091A0008F7DF9CF8091A00056
:100A6000877FF5CF809120018F77809320018DCFF4
:100A7000809120018F7DF9CF80912001877FF5CF74
:100A800064E170E080E090E0B4DE98CF81E0F3DCD8
:100A90006F3F7F4F8F4F9F4F09F4AACF9E012F5F6B
:100AA0003F4F79015E013FEBA31A3EEFB30A870186
:100AB00080E0E1DCF801608371838283938381E0CD
:100AC000DADCF8016483758386839783085F1F4FA0
:100AD000A016B10669F7789430E020E0F701808035
:100AE0009180A280B3804481558166817781FFEF38
:100AF0008F169F06AF06BF0631F04F3F0FEF50072E
:100B00006007700719F410920D0375CFF90183E0A7
:100B1000F595E7958A95E1F7E450FD4F8081880FC0
:100B200084169506A606B70618F180832F5F3F4FFF
:100B300018E0E10EF11C2832310581F640910003E6
:100B40002091FC028091FD02280F3327331F8091F2
:100B5000FE02280F311D8091FF02820F932F911DFD
:100B600099274817190679F681E080930D03A6CEE0
:100B70008160DBCF42E050E068E172E08FE592E017
:100B8000B2CCCF93DF93EC0188819981009709F073
:100B9000AFD7198218821D821C821B821A82DF91B4
:100BA000CF910895FC0180819181009709F0A0C741
:100BB00008950F931F93CF93DF93EC018881998160
:100BC000009759F02A813B812617370730F081E0E2
:100BD000DF91CF911F910F9108958B016F5F7F4F30
:100BE0000E94010E009759F0998388831B830A8322
:100BF0002C813D81232B59F7FC011082E8CF80E046
:100C0000E7CFEF92FF920F931F93CF93DF9361157E
:100C1000710541F480E0DF91CF911F910F91FF901A
:100C2000EF90089541155105A9F07B01EC010C816D
:100C30001D81040F151FB801BCDF882359F32881DB
:100C400039818C819D81B701820F931F0E94E60E2E
:100C50001D830C8381E0DFCFEF92FF920F931F93F0
:100C6000CF93DF93EC017B018A01BA01A2DF8111EE
:100C70000AC0CE0186DFCE01DF91CF911F910F9187
:100C8000FF90EF9008951D830C83B70188819981AF
:100C90000E94E60EF0CFEF92FF920F931F93CF9337
:100CA000DF93CDB7DEB7A1970FB6F894DEBF0FBEC6
:100CB000CDBF7C01CB01BA01F701118210821382F2
:100CC0001282158214828E010F5F1F4F22E044E0D2
:100CD000A8D20097C1F0FC0101900020E9F73197FC
:100CE000AF01481B590BBC01C701B6DFA1960FB677
:100CF000F894DEBF0FBECDBFDF91CF911F910F9152
:100D0000FF90EF900895C7013CDFF0CF1F920F9244
:100D10000FB60F9211240BB60F922F933F934F9360
:100D20005F936F937F938F939F93AF93BF93EF9353
:100D3000FF938FE592E04ADCFF91EF91BF91AF9175
:100D40009F918F917F916F915F914F913F912F91E3
:100D50000F900BBE0F900FBE0F901F9018951F9213
:100D60000F920FB60F9211240BB60F922F938F9301
:100D70009F93EF93FF93E0916F02F0917002808157
:100D8000E0917502F091760282FD1DC09081809104
:100D900078028F5F8F7320917902821741F0E09182
:100DA0007802F0E0E15AFD4F958F80937802FF9131
:100DB000EF919F918F912F910F900BBE0F900FBECF
:100DC0000F901F9018958081F2CF1F920F920FB64F
:100DD0000F9211242F933F938F939F93AF93BF93C1
:100DE00080915B0290915C02A0915D02B0915E02E5
:100DF0003091560223E0230F2D3758F50196A11D9F
:100E0000B11D2093560280935B0290935C02A093E5
:100E10005D02B0935E028091570290915802A091BA
:100E20005902B0915A020196A11DB11D809357023B
:100E300090935802A0935902B0935A02BF91AF9178
:100E40009F918F913F912F910F900FBE0F901F9008
:100E5000189526E8230F0296A11DB11DD2CFEFE50C
:100E6000F2E01382128288EE93E0A0E0B0E0848387
:100E70009583A683B7838AE092E09183808385EC93
:100E800090E09587848784EC90E09787868780EC54
:100E900090E0918B808B81EC90E0938B828B82EC45
:100EA00090E0958B848B86EC90E0978B868B118EEF
:100EB000128E138E148EACEFB2E087E015968C93F1
:100EC00015978BE016968C931697EFEBF2E0E49172
:100ED0001796EC931797E9E7F2E0E4911896EC93F4
:100EE000189740E85EE360E070E01D964D935D93D7
:100EF0006D937C9350970895CF93DF93CDB7DEB772
:100F000068970FB6F894DEBF0FBECDBF789484B556
:100F1000826084BD84B5816084BD85B5826085BDF5
:100F200085B5816085BD80916E00816080936E0083
:100F30001092810080918100826080938100809175
:100F40008100816080938100809180008160809326
:100F500080008091B10084608093B1008091B000E6
:100F600081608093B00080919100826080939100B5
:100F700080919100816080939100809190008160C8
:100F8000809390008091A10082608093A100809165
:100F9000A10081608093A1008091A0008160809376
:100FA000A000809121018260809321018091210124
:100FB00081608093210180912001816080932001D4
:100FC00080917A00846080937A0080917A008260B8
:100FD00080937A0080917A00816080937A0080917A
:100FE0007A00806880937A001092C100E0916F02CD
:100FF000F091700282E08083E0916B02F0916C02CC
:101000001082E0916D02F0916E028FEC808310925D
:101010007702E0917302F091740286E08083E091A0
:101020007102F0917202808180618083E09171028F
:10103000F0917202808188608083E0917102F0916A
:101040007202808180688083E0917102F091720267
:1010500080818F7D80834CE050E06BE172E08FE512
:1010600092E041DA87DD62E0809101036CDB2FB70B
:10107000F89480915B0290915C02A0915D02B09126
:101080005E022FBF805D9740A109B10980930503DF
:1010900090930603A0930703B093080387E380931C
:1010A0000E0368EE73E080E090E0A3DBD2DB8823E0
:1010B00051F0809102038B3030F08D3058F0855123
:1010C000823008F497C0C12CD12C90ECE92E9FE718
:1010D000F92E1AC06091FD0270E090E080E010D31C
:1010E0002DEC3CEC4CEC5DE346D36B017C01609154
:1010F000FC0270E090E080E003D39B01AC01C701EB
:10110000B601EED36B017C01A4DB882309F482C015
:1011100080E027D94B015C019CDBB701A601CE0121
:101120000196B9DDB501A401CE010796B4DD1E8696
:101130001D86188A1F861A8A198A4FE050E068E2D5
:1011400072E0CE010D9688DD4B855C856F817885D8
:10115000CE010D9656DD811103C0CE010D9611DD35
:101160004BE150E068E372E0CE010D964ADD81115B
:1011700003C0CE010D9605DD4D815E8169817A81C6
:10118000CE010D963EDD811103C0CE010D96F9DC36
:1011900041E050E064E572E0CE010D9632DD811150
:1011A00003C0CE010D96EDDC1C8A1B8A1E8A1D8AA7
:1011B000188E1F8A6D857E856115710529F0498914
:1011C0005A89CE01439648DDCE010D96EBDCCE0167
:1011D0000796E8DCCE010196E5DC4F89588D6B89D6
:1011E0007C898FE592E07FD9C5DCCE014396DADCBD
:1011F0007ADA57CF6091FC027091FD02762767275B
:10120000762790E080E07AD22DEC3CEC4CEC5DE36C
:10121000B2D278CF812C912C80ECA82E8FE7B82EFB
:101220007BCFEF920F931F93CF93DF93E80134E0CE
:1012300047FD34E1042E000C550B57FF03C05195B8
:1012400041955109E32E022F242FAE0107D0CE0184
:10125000DF91CF911F910F91EF9008958F929F9200
:10126000AF92BF92CF92DF92EF92FF920F931F93B4
:10127000CF93DF9300D000D000D0CDB7DEB76A01A6
:10128000F22EB02E102FFBE3AF2EA01608F41BE3B6
:101290001F5F012F27E0AE014F5F5F4F57D1BC01A9
:1012A0008981982F9970913009F44EC09BE2E1FC3E
:1012B00004C09E2D9170E0FC49C05E2D5071E82F56
:1012C000E87083FF55C084E0911101C083E0EF2DE9
:1012D000E81B8F1508F0E0E0D6018E2F20E25523A1
:1012E000C9F1992329F0D6019C93C60101966C019E
:1012F00096012D5F3F4FE2FE33C08EE4D6018C9302
:1013000091E411969C93119712968C93D9018E2F8C
:1013100090E281112AC0E20FF32FF11D10828EEFAF
:101320009FEF29960FB6F894DEBF0FBECDBFDF91B9
:10133000CF911F910F91FF90EF90DF90CF90BF90D2
:10134000AF909F908F9008959DE2B7CF90E2B5CF78
:101350002D9381508111FCCFCE0ED11CE0E0C1CF86
:101360008EE6D6018C9391E6CCCF9D938150D1CF60
:10137000482F447082FF3DC084E0911101C083E09A
:101380008F1510F4EF2DE81BD6018E2F20E2552388
:1013900009F1992329F0D6019C93C60101966C01AD
:1013A00096012D5F3F4FE2FE1BC089E4D6018C936E
:1013B0008EE411968C93119786E412968C93D90142
:1013C0008E2F90E2882309F4A6CF9D938150FACF07
:1013D0002D9381508111FCCFCE0ED11CE0E0D9CFEE
:1013E00089E6D6018C938EE611968C93119786E64A
:1013F000E4CF9B0177FF02C030E020E0A1E0B0E045
:10140000911102C0B0E0A0E0F9013196AE0FBF1F0C
:101410008B2C912CBB2009F461C05401EFEFAE1A64
:10142000BE0AAA0DBB1DFA161B0619F014F04F2DAB
:101430004A1B511188C0E3FC59C07601A42FB0E2C9
:10144000A1114FC0C40ED11C992309F45BC040E028
:10145000D6011196F60190836D01552309F448C019
:10146000012F060F9A81582F507184FF03C09133CA
:1014700009F4015010160CF047C0093008F008E0DC
:10148000EEE2FE2E5B01A01AB108850191948194D1
:1014900091082F3F320729F4D601FC92F6013196CC
:1014A0006F016217730794F1021713077CF5DB01D4
:1014B000A21BB30BAA24A394B12CAC0EBD1EAA0D83
:1014C000BB1D11968C9121503109D601119628151A
:1014D0003905F4F0F60180836D01DBCFB12CA12C2E
:1014E000A0CFF701B1937F01A150AACF9111B0CF46
:1014F000D601942F50E302C05D9391509111FCCF1F
:10150000C40ED11C40E0ACCF01E0BACF80E3DBCF0A
:101510006217730731F4963388F4953311F4552329
:1015200069F0F6018083FD01842F90E2811108C0EB
:10153000A40FB11D1C9290E080E0F3CE81E3F1CFC7
:1015400091938150F3CF911183CF8ACF283008F047
:1015500027E03327DA01990F311D87FD916000964E
:101560006105710539F432602E5F3D9330E32A95B1
:10157000E1F708959F3F30F080387105610509F06B
:101580003C5F3C5F3D93913008F08068911DDF9394
:10159000CF931F930F93FF92EF92192F987F9695F9
:1015A000E92F96959695E90FFF27E25CFE4F992764
:1015B0003327EE24FF24A701E70105900894079440
:1015C00028F4360FE71EF81E491F511D660F771FBE
:1015D000881F991F0694A1F70590079428F4E70E39
:1015E000F81E491F561FC11D770F881F991F661FC0
:1015F0000694A1F70590079428F4F80E491F561F8A
:10160000C71FD11D880F991F661F771F0694A1F76A
:101610000590079420F4490F561FC71FD81F990F34
:10162000661F771F881F0694A9F78491109517707D
:1016300041F0D695C79557954795F794E7941A9535
:10164000C1F7E4EEF0E0689415901591359165913D
:10165000959105907FE27395E118F10A430B560BC3
:10166000C90BD009C0F7E10CF11E431F561FC91F5B
:10167000D01D7EF4703311F48A95E6CFE8940150C2
:1016800030F0080F0AF40027021708F4202F2395E2
:10169000022F7A3328F079E37D932A95E9F710C079
:1016A0007D932A9589F606949795679537951795B2
:1016B0001794E118F10A430B560BC90BD00998F0A7
:1016C00023957E9173957A3308F070E37C93201311
:1016D000B8F77E9170617D9330F0839571E37D93CF
:1016E00070E32A95E1F71124EF90FF900F911F917D
:1016F000CF91DF91992787FD90950895E89409C0CF
:1017000097FB3EF490958095709561957F4F8F4F34
:101710009F4F9923A9F0F92F96E9BB279395F6954A
:10172000879577956795B795F111F8CFFAF4BB0FC8
:1017300011F460FF1BC06F5F7F4F8F4F9F4F16C02C
:10174000882311F096E911C0772321F09EE8872FB6
:10175000762F05C0662371F096E8862F70E060E072
:101760002AF09A95660F771F881FDAF7880F9695EB
:10177000879597F908950BD078C069D028F06ED07E
:1017800018F0952309F05AC05FC01124A2C07ED082
:10179000A0F3959FD1F3950F50E0551F629FF00184
:1017A000729FBB27F00DB11D639FAA27F00DB11DDD
:1017B000AA1F649F6627B00DA11D661F829F222766
:1017C000B00DA11D621F739FB00DA11D621F839FED
:1017D000A00D611D221F749F3327A00D611D231FC3
:1017E000849F600D211D822F762F6A2F11249F5711
:1017F00050408AF0E1F088234AF0EE0FFF1FBB1F34
:10180000661F771F881F91505040A9F79E3F5105D2
:1018100070F014C05EC05F3FECF3983EDCF3869539
:1018200077956795B795F795E7959F5FC1F7FE2B7D
:10183000880F911D9695879597F9089597F99F6759
:1018400080E870E060E008959FEF80EC0895002448
:101850000A941616170618060906089500240A9415
:1018600012161306140605060895092E0394000C9B
:1018700011F4882352F0BB0F40F4BF2B11F460FF2A
:1018800004C06F5F7F4F8F4F9F4F089557FD905853
:10189000440F551F59F05F3F71F04795880F97FB34
:1018A000991F61F09F3F79F08795089512161306EE
:1018B0001406551FF2CF4695F1DF08C0161617061D
:1018C0001806991FF1CF8695710561050894089552
:1018D000E894BB2766277727CB0197F908955058DE
:1018E000BB27AA270ED0C1CFB2DF30F0B7DF20F080
:1018F00031F49F3F11F41EF4A7CF0EF4E095E7FBFF
:101900009DCFE92FC3DF80F3BA17620773078407FF
:10191000950718F071F49EF5DBCF0EF4E0950B2ED1
:10192000BA2FA02D0B01B90190010C01CA01A00131
:101930001124FF27591B99F0593F50F4503E68F18C
:101940001A16F040A22F232F342F4427585FF3CFCD
:10195000469537952795A795F0405395C9F77EF49E
:101960001F16BA0B620B730B840BBAF09150A1F0E7
:10197000FF0FBB1F661F771F881FC2F70EC0BA0F6D
:10198000621F731F841F48F4879577956795B795F5
:10199000F7959E3F08F0B3CF9395880F08F09927ED
:1019A000EE0F979587950895EE0FFF1F881F8BBF49
:1019B0000790F691E02D19940F931F93CF93DF9327
:1019C0008230910510F482E090E0E0911103F091F3
:1019D000120330E020E0B0E0A0E0309799F4211548
:1019E000310509F44AC0281B390B24303105D8F5DC
:1019F0008A819B816115710589F1FB019383828343
:101A0000FE0111C04081518102811381481759079D
:101A1000E0F04817590799F4109761F012960C936B
:101A2000129713961C933296CF01DF91CF911F919D
:101A30000F9108950093110310931203F4CF211511
:101A4000310551F04217530738F0A901DB019A0123
:101A5000BD01DF01F801C1CFEF01F9CF909312036F
:101A600080931103CDCFFE01E20FF31F8193919379
:101A70002250310939832883D7CF20910F03309129
:101A80001003232B41F42091020230910302309382
:101A9000100320930F0320910002309101022115C1
:101AA000310541F42DB73EB7409104025091050233
:101AB000241B350BE0910F03F0911003E217F3079D
:101AC000A0F42E1B3F0B2817390778F0AC014E5FAE
:101AD0005F4F2417350748F04E0F5F1F50931003D8
:101AE00040930F03819391939FCFF0E0E0E09CCF70
:101AF000CF93DF930097E9F0FC01329713821282B3
:101B0000A0911103B0911203ED0130E020E0109795
:101B1000A1F420813181820F931F20910F03309116
:101B200010032817390709F061C0F0931003E09300
:101B30000F03DF91CF910895EA01CE17DF07E8F593
:101B40004A815B819E0141155105B1F7E901FB8393
:101B5000EA8349915991C40FD51FEC17FD0761F431
:101B6000808191810296840F951FE9019983888372
:101B7000828193819B838A83F0E0E0E012968D91CD
:101B80009C9113970097B9F52D913C911197CD0138
:101B90000296820F931F20910F0330911003281794
:101BA000390739F6309751F510921203109211034C
:101BB000B0931003A0930F03BCCFD383C2834081A3
:101BC0005181840F951FC817D90761F44E5F5F4F8D
:101BD00088819981480F591F518340838A819B8155
:101BE000938382832115310509F0B0CFF09312035E
:101BF000E09311039ECFFD01DC01C0CF138212825E
:101C0000D7CF4F925F926F927F928F929F92AF92B7
:101C1000BF92CF92DF92EF92FF920F931F93CF93D9
:101C2000DF938C01009791F4CB01DF91CF911F914D
:101C30000F91FF90EF90DF90CF90BF90AF909F906B
:101C40008F907F906F905F904F90B6CEFC01E60F23
:101C5000F71F9C0122503109E217F30708F4AAC0CC
:101C6000D901CD91DC911197C617D70718F1C5306E
:101C7000D10570F0CE0104978617970748F0C61B70
:101C8000D70B2297C193D1936D937C93CF0130DF13
:101C9000C801DF91CF911F910F91FF90EF90DF90DE
:101CA000CF90BF90AF909F908F907F906F905F90FC
:101CB0004F9008955B01AC1ABD0A4C018C0E9D1E1D
:101CC000A0911103B0911203512C412CF12CE12C65
:101CD000109731F580910F039091100388159905A5
:101CE00009F05CC04616570608F058C08091000203
:101CF00090910102009741F48DB79EB74091040284
:101D000050910502841B950BE817F90708F052C0A3
:101D1000F0931003E0930F03F90171836083B8CF50
:101D20008D919C91119712966C90129713967C90BE
:101D30001397A815B90559F56C0142E0C40ED11CE2
:101D4000CA14DB0420F1AC014A195B09DA011296CE
:101D5000159780F06282738251834083D9016D931D
:101D60007C93E114F10471F0D7011396FC93EE9388
:101D700012978ECF22968C0F9D1FF901918380833D
:101D8000F301EFCFF0931203E093110381CF4816D4
:101D9000590608F42C017D01D3019ACFCB010CDE4A
:101DA0007C01009739F0AE01B80107D0C801A0DE70
:101DB00087016ECF10E000E06BCFFB01DC0102C0B9
:101DC00001900D9241505040D8F70895FB01DC017D
:0E1DD00001900D920020E1F70895F894FFCFE6
:101DDE000000130380000000000008037302A0023D
:101DEE005403D102AF02C3020D0A00496E69636942
:101DFE00616E646F2E2E2E007B2274656D7065727F
:101E0E006174757261223A002C20227669656E74B7
:101E1E006F223A2036322C202268756D656461641B
:061E2E00223A20007D00B5
:00000001FF
